{
  "_format": "hh-sol-artifact-1",
  "contractName": "PendlePtLpOracle",
  "sourceName": "contracts/oracles/PendlePtLpOracle.sol",
  "abi": [
    {
      "inputs": [
        {
          "internalType": "uint16",
          "name": "_blockCycleNumerator",
          "type": "uint16"
        }
      ],
      "stateMutability": "nonpayable",
      "type": "constructor"
    },
    {
      "inputs": [
        {
          "internalType": "uint256",
          "name": "blockCycleNumerator",
          "type": "uint256"
        }
      ],
      "name": "InvalidBlockRate",
      "type": "error"
    },
    {
      "inputs": [
        {
          "internalType": "int256",
          "name": "exchangeRate",
          "type": "int256"
        }
      ],
      "name": "MarketExchangeRateBelowOne",
      "type": "error"
    },
    {
      "inputs": [],
      "name": "MarketExpired",
      "type": "error"
    },
    {
      "inputs": [],
      "name": "MarketProportionMustNotEqualOne",
      "type": "error"
    },
    {
      "inputs": [
        {
          "internalType": "int256",
          "name": "rateScalar",
          "type": "int256"
        }
      ],
      "name": "MarketRateScalarBelowZero",
      "type": "error"
    },
    {
      "inputs": [
        {
          "internalType": "int256",
          "name": "totalPt",
          "type": "int256"
        },
        {
          "internalType": "int256",
          "name": "totalAsset",
          "type": "int256"
        }
      ],
      "name": "MarketZeroTotalPtOrTotalAsset",
      "type": "error"
    },
    {
      "inputs": [
        {
          "internalType": "uint32",
          "name": "duration",
          "type": "uint32"
        },
        {
          "internalType": "uint32",
          "name": "cardinalityRequired",
          "type": "uint32"
        }
      ],
      "name": "TwapDurationTooLarge",
      "type": "error"
    },
    {
      "anonymous": false,
      "inputs": [
        {
          "indexed": false,
          "internalType": "uint8",
          "name": "version",
          "type": "uint8"
        }
      ],
      "name": "Initialized",
      "type": "event"
    },
    {
      "anonymous": false,
      "inputs": [
        {
          "indexed": true,
          "internalType": "address",
          "name": "previousOwner",
          "type": "address"
        },
        {
          "indexed": true,
          "internalType": "address",
          "name": "newOwner",
          "type": "address"
        }
      ],
      "name": "OwnershipTransferred",
      "type": "event"
    },
    {
      "anonymous": false,
      "inputs": [
        {
          "indexed": false,
          "internalType": "uint16",
          "name": "newBlockCycleNumerator",
          "type": "uint16"
        }
      ],
      "name": "SetBlockCycleNumerator",
      "type": "event"
    },
    {
      "inputs": [],
      "name": "BLOCK_CYCLE_DENOMINATOR",
      "outputs": [
        {
          "internalType": "uint16",
          "name": "",
          "type": "uint16"
        }
      ],
      "stateMutability": "view",
      "type": "function"
    },
    {
      "inputs": [],
      "name": "blockCycleNumerator",
      "outputs": [
        {
          "internalType": "uint16",
          "name": "",
          "type": "uint16"
        }
      ],
      "stateMutability": "view",
      "type": "function"
    },
    {
      "inputs": [],
      "name": "claimOwnership",
      "outputs": [],
      "stateMutability": "nonpayable",
      "type": "function"
    },
    {
      "inputs": [
        {
          "internalType": "address",
          "name": "market",
          "type": "address"
        },
        {
          "internalType": "uint32",
          "name": "duration",
          "type": "uint32"
        }
      ],
      "name": "getLpToAssetRate",
      "outputs": [
        {
          "internalType": "uint256",
          "name": "",
          "type": "uint256"
        }
      ],
      "stateMutability": "view",
      "type": "function"
    },
    {
      "inputs": [
        {
          "internalType": "address",
          "name": "market",
          "type": "address"
        },
        {
          "internalType": "uint32",
          "name": "duration",
          "type": "uint32"
        }
      ],
      "name": "getLpToSyRate",
      "outputs": [
        {
          "internalType": "uint256",
          "name": "",
          "type": "uint256"
        }
      ],
      "stateMutability": "view",
      "type": "function"
    },
    {
      "inputs": [
        {
          "internalType": "address",
          "name": "market",
          "type": "address"
        },
        {
          "internalType": "uint32",
          "name": "duration",
          "type": "uint32"
        }
      ],
      "name": "getOracleState",
      "outputs": [
        {
          "internalType": "bool",
          "name": "increaseCardinalityRequired",
          "type": "bool"
        },
        {
          "internalType": "uint16",
          "name": "cardinalityRequired",
          "type": "uint16"
        },
        {
          "internalType": "bool",
          "name": "oldestObservationSatisfied",
          "type": "bool"
        }
      ],
      "stateMutability": "view",
      "type": "function"
    },
    {
      "inputs": [
        {
          "internalType": "address",
          "name": "market",
          "type": "address"
        },
        {
          "internalType": "uint32",
          "name": "duration",
          "type": "uint32"
        }
      ],
      "name": "getPtToAssetRate",
      "outputs": [
        {
          "internalType": "uint256",
          "name": "",
          "type": "uint256"
        }
      ],
      "stateMutability": "view",
      "type": "function"
    },
    {
      "inputs": [
        {
          "internalType": "address",
          "name": "market",
          "type": "address"
        },
        {
          "internalType": "uint32",
          "name": "duration",
          "type": "uint32"
        }
      ],
      "name": "getPtToSyRate",
      "outputs": [
        {
          "internalType": "uint256",
          "name": "",
          "type": "uint256"
        }
      ],
      "stateMutability": "view",
      "type": "function"
    },
    {
      "inputs": [],
      "name": "owner",
      "outputs": [
        {
          "internalType": "address",
          "name": "",
          "type": "address"
        }
      ],
      "stateMutability": "view",
      "type": "function"
    },
    {
      "inputs": [],
      "name": "pendingOwner",
      "outputs": [
        {
          "internalType": "address",
          "name": "",
          "type": "address"
        }
      ],
      "stateMutability": "view",
      "type": "function"
    },
    {
      "inputs": [
        {
          "internalType": "uint16",
          "name": "newBlockCycleNumerator",
          "type": "uint16"
        }
      ],
      "name": "setBlockCycleNumerator",
      "outputs": [],
      "stateMutability": "nonpayable",
      "type": "function"
    },
    {
      "inputs": [
        {
          "internalType": "address",
          "name": "newOwner",
          "type": "address"
        },
        {
          "internalType": "bool",
          "name": "direct",
          "type": "bool"
        },
        {
          "internalType": "bool",
          "name": "renounce",
          "type": "bool"
        }
      ],
      "name": "transferOwnership",
      "outputs": [],
      "stateMutability": "nonpayable",
      "type": "function"
    }
  ],
  "bytecode": "0x60806040523480156200001157600080fd5b5060405162002543380380620025438339810160408190526200003491620002d1565b600154600160a81b900460ff16158080156200005b575060018054600160a01b900460ff16105b806200007d5750303b1580156200007d575060018054600160a01b900460ff16145b620000e65760405162461bcd60e51b815260206004820152602e60248201527f496e697469616c697a61626c653a20636f6e747261637420697320616c72656160448201526d191e481a5b9a5d1a585b1a5e995960921b60648201526084015b60405180910390fd5b6001805460ff60a01b1916600160a01b179055801562000114576001805460ff60a81b1916600160a81b1790555b6200011e62000179565b6200012982620001fc565b801562000171576001805460ff60a81b191681556040519081527f7f26b83ff96e1f2b6a682f133852f6798a09c465da95921460cefb38474024989060200160405180910390a15b5050620002fe565b600154600160a81b900460ff16620001e85760405162461bcd60e51b815260206004820152602b60248201527f496e697469616c697a61626c653a20636f6e7472616374206973206e6f74206960448201526a6e697469616c697a696e6760a81b6064820152608401620000dd565b600080546001600160a01b03191633179055565b6000546001600160a01b03163314620002585760405162461bcd60e51b815260206004820181905260248201527f4f776e61626c653a2063616c6c6572206973206e6f7420746865206f776e65726044820152606401620000dd565b6103e861ffff821610156200028757604051632204277360e21b815261ffff82166004820152602401620000dd565b6032805461ffff191661ffff83169081179091556040519081527f30b0568b152eb73b8d1104ca045f37e64f7eae07b09ea9607ab1bdf475012c539060200160405180910390a150565b600060208284031215620002e457600080fd5b815161ffff81168114620002f757600080fd5b9392505050565b612235806200030e6000396000f3fe608060405234801561001057600080fd5b50600436106100a45760003560e01c8063078dfbe7146100a957806340f25951146100be5780634d44ca89146100d15780634e71e0c8146100f757806358f6e5a1146100ff5780636cda98331461011a578063873e96001461012d5780638da5cb5b14610162578063a31426d114610182578063abca0eab14610195578063e30c3978146101a8578063fa040f64146101bb575b600080fd5b6100bc6100b7366004611b0f565b6101c4565b005b6100bc6100cc366004611b6a565b6102ca565b6100e46100df366004611b99565b610369565b6040519081526020015b60405180910390f35b6100bc610387565b60325461010d9061ffff1681565b6040516100ee9190611bd2565b6100e4610128366004611b99565b610432565b61014061013b366004611b99565b610447565b60408051931515845261ffff90921660208401521515908201526060016100ee565b600054610175906001600160a01b031681565b6040516100ee9190611be1565b6100e4610190366004611b99565b6105f6565b6100e46101a3366004611b99565b61060b565b600154610175906001600160a01b031681565b61010d6103e881565b6000546001600160a01b031633146101f75760405162461bcd60e51b81526004016101ee90611bf5565b60405180910390fd5b81156102a8576001600160a01b0383161515806102115750805b6102555760405162461bcd60e51b81526020600482015260156024820152744f776e61626c653a207a65726f206164647265737360581b60448201526064016101ee565b600080546040516001600160a01b03808716939216916000805160206121e083398151915291a3600080546001600160a01b0385166001600160a01b031991821617909155600180549091169055505050565b600180546001600160a01b0385166001600160a01b0319909116179055505050565b6000546001600160a01b031633146102f45760405162461bcd60e51b81526004016101ee90611bf5565b6103e861ffff8216101561031d5780604051632204277360e21b81526004016101ee9190611bd2565b6032805461ffff191661ffff83161790556040517f30b0568b152eb73b8d1104ca045f37e64f7eae07b09ea9607ab1bdf475012c539061035e908390611bd2565b60405180910390a150565b600061037e6001600160a01b03841683610620565b90505b92915050565b6001546001600160a01b03163381146103e25760405162461bcd60e51b815260206004820181905260248201527f4f776e61626c653a2063616c6c657220213d2070656e64696e67206f776e657260448201526064016101ee565b600080546040516001600160a01b03808516939216916000805160206121e083398151915291a3600080546001600160a01b039092166001600160a01b0319928316179055600180549091169055565b600061037e6001600160a01b03841683610666565b600080600080600080876001600160a01b031663c3fb90d66040518163ffffffff1660e01b815260040160c060405180830381865afa15801561048e573d6000803e3d6000fd5b505050506040513d601f19601f820116820180604052508101906104b29190611c3c565b9550955095505050506104c4876106ad565b61ffff80821690831610965094506000806001600160a01b038a1663252c09d7856104f0886001611ce0565b6104fa9190611d11565b6040518263ffffffff1660e01b81526004016105169190611bd2565b606060405180830381865afa158015610533573d6000803e3d6000fd5b505050506040513d601f19601f820116820180604052508101906105579190611d49565b9250509150806105d05760405163252c09d760e01b8152600060048201526001600160a01b038b169063252c09d790602401606060405180830381865afa1580156105a6573d6000803e3d6000fd5b505050506040513d601f19601f820116820180604052508101906105ca9190611d49565b50909250505b6105e063ffffffff8a1642611d87565b8263ffffffff1610955050505050509250925092565b600061037e6001600160a01b0384168361072c565b600061037e6001600160a01b03841683610778565b600080600061062e856107bb565b91509150600061063f8686846109eb565b905081831061065c576106528184610b82565b9350505050610381565b6106528183610b82565b6000806000610674856107bb565b9150915060006106858686846109eb565b9050818310610698579250610381915050565b816106a38483611d9a565b6106529190611db1565b603254600090819061ffff166001816106c86103e887611dc5565b6106d29190611de5565b6106dc9190611e02565b6106e69190611e1f565b6106f1906001611de5565b905061ffff63ffffffff8216111561038157604051632212b64b60e21b815263ffffffff8085166004830152821660248201526044016101ee565b600080600061073a856107bb565b9150915080821061076257610759826107538787610bb1565b90610b82565b92505050610381565b610759816107538787610bb1565b505092915050565b6000806000610786856107bb565b9150915080821061079b576107598585610bb1565b80826107a78787610bb1565b6107b19190611d9a565b6107599190611db1565b600080600080846001600160a01b0316632c8ce6bc6040518163ffffffff1660e01b8152600401606060405180830381865afa1580156107ff573d6000803e3d6000fd5b505050506040513d601f19601f820116820180604052508101906108239190611e42565b9250509150816001600160a01b0316633ba0b9a96040518163ffffffff1660e01b8152600401602060405180830381865afa158015610866573d6000803e3d6000fd5b505050506040513d601f19601f8201168201806040525081019061088a9190611e84565b93506000816001600160a01b031663d2a3584e6040518163ffffffff1660e01b8152600401602060405180830381865afa1580156108cc573d6000803e3d6000fd5b505050506040513d601f19601f820116820180604052508101906108f09190611e84565b9050816001600160a01b031663516399df6040518163ffffffff1660e01b8152600401602060405180830381865afa158015610930573d6000803e3d6000fd5b505050506040513d601f19601f820116820180604052508101906109549190611e9d565b80156109c9575043826001600160a01b03166360e0a9e16040518163ffffffff1660e01b8152600401602060405180830381865afa15801561099a573d6000803e3d6000fd5b505050506040513d601f19601f820116820180604052508101906109be9190611eba565b6001600160801b0316145b156109d6578093506109e3565b6109e08582610c81565b93505b505050915091565b600080846001600160a01b031663794052f360006040518263ffffffff1660e01b8152600401610a1b9190611be1565b61012060405180830381865afa158015610a39573d6000803e3d6000fd5b505050506040513d601f19601f82011682018060405250810190610a5d9190611f5d565b90506000428260a0015111610a8d57610a7a848360200151610c97565b8251610a869190611fdf565b9050610b59565b6000610a9a838642610cdb565b9050600080610aaa89868a610ddc565b915091506000610ad3610ace856040015185610ac69190611fff565b865190610e4c565b610e6f565b90506000610b18610ae48385611284565b610af690670de0b6b3a7640000611fdf565b88516020880151610b08908690610e4c565b610b129190611fff565b90611284565b9050610b2e84828960000151610b129190611fdf565b610b388285611284565b8660200151610b479190611fff565b610b519190611fdf565b955050505050505b610b78610b7383604001518361128490919063ffffffff16565b6112aa565b9695505050505050565b600080610b97670de0b6b3a764000085611d9a565b9050828181610ba857610ba8611cfb565b04949350505050565b600080836001600160a01b031663e184c9be6040518163ffffffff1660e01b8152600401602060405180830381865afa158015610bf2573d6000803e3d6000fd5b505050506040513d601f19601f82011682018060405250810190610c169190611e84565b9050428111610c3057670de0b6b3a7640000915050610381565b6000610c3c85856112bd565b90506000610c4a4284611d87565b90506000610c5b610b7384846113e4565b9050610c6f670de0b6b3a764000082610b82565b945050505050610381565b5092915050565b6000818311610c90578161037e565b5090919050565b60008060008312610ca9576001610cad565b6000195b9050610cc9610cc485610cbf86611418565b61142a565b611449565b610cd3908261201f565b949350505050565b610d066040518060800160405280600081526020016000815260200160008152602001600081525090565b60a08401518210610d2a5760405163b2094b5960e01b815260040160405180910390fd5b6000828560a00151610d3c9190611d87565b9050610d48858261145f565b82526020850151610d5a908590610c97565b602083015284511580610d6f57506020820151155b15610d9d578451602083015160405163b1c4aefb60e01b8152600481019290925260248201526044016101ee565b610dbb856000015186610100015184602001518560000151856114bb565b604083015260c0850151610dcf90826113e4565b6060830152509392505050565b600080610e07610df8610cc46001600160a01b03881686610bb1565b670de0b6b3a764000090611284565b91506000610e29856101000151428760a00151610e249190611d87565b6113e4565b90506002610e378483611fdf565b610e41919061204f565b915050935093915050565b600080610e59838561201f565b9050670de0b6b3a7640000815b05949350505050565b6000680238fd42c5cf03ffff198212158015610e94575068070c1cc73b00c800008213155b610ed35760405162461bcd60e51b815260206004820152601060248201526f125b9d985b1a5908195e1c1bdb995b9d60821b60448201526064016101ee565b6000821215610f0b57610ee882600003610e6f565b6a0c097ce7bc90715b34b9f160241b81610f0457610f04611cfb565b0592915050565b60006806f05b59d3b20000008312610f4957506806f05b59d3b1ffffff199091019072195e54c5dd42177f53a27172fa9ec63026282760241b610f7f565b6803782dace9d90000008312610f7b57506803782dace9d8ffffff19909101906b1425982cf597cd205cef7380610f7f565b5060015b6064929092029168056bc75e2d6310000068ad78ebc5ac620000008412610fcf5768ad78ebc5ac61ffffff199093019268056bc75e2d631000006e01855144814a7ff805980ff008400082020590505b6856bc75e2d631000000841261100b576856bc75e2d630ffffff199093019268056bc75e2d631000006b02df0ab5a80a22c61ab5a70082020590505b682b5e3af16b18800000841261104557682b5e3af16b187fffff199093019268056bc75e2d63100000693f1fce3da636ea5cf85082020590505b6815af1d78b58c400000841261107f576815af1d78b58c3fffff199093019268056bc75e2d63100000690127fa27722cc06cc5e282020590505b680ad78ebc5ac620000084126110b857680ad78ebc5ac61fffff199093019268056bc75e2d6310000068280e60114edb805d0382020590505b68056bc75e2d6310000084126110f15768056bc75e2d630fffff199093019268056bc75e2d63100000680ebc5fb4174612111082020590505b6802b5e3af16b1880000841261112a576802b5e3af16b187ffff199093019268056bc75e2d631000006808f00f760a4b2db55d82020590505b68015af1d78b58c4000084126111635768015af1d78b58c3ffff199093019268056bc75e2d631000006806f5f177578893793782020590505b68056bc75e2d631000008481019085906002908280020505918201919050600368056bc75e2d631000008783020505918201919050600468056bc75e2d631000008783020505918201919050600568056bc75e2d631000008783020505918201919050600668056bc75e2d631000008783020505918201919050600768056bc75e2d631000008783020505918201919050600868056bc75e2d631000008783020505918201919050600968056bc75e2d631000008783020505918201919050600a68056bc75e2d631000008783020505918201919050600b68056bc75e2d631000008783020505918201919050600c68056bc75e2d631000008783020505918201919050606468056bc75e2d63100000848402058502059695505050505050565b600080611299670de0b6b3a76400008561201f565b9050828181610e6657610e66611cfb565b6000808212156112b957600080fd5b5090565b6040805160028082526060820183526000928392919060208301908036833701905050905082816000815181106112f6576112f661207d565b63ffffffff9092166020928302919091019091015260405163883bdbfd60e01b81526000906001600160a01b0386169063883bdbfd9061133a908590600401612093565b600060405180830381865afa158015611357573d6000803e3d6000fd5b505050506040513d6000823e601f3d908101601f1916820160405261137f91908101906120dd565b90508363ffffffff168160008151811061139b5761139b61207d565b6020026020010151826001815181106113b6576113b661207d565b60200260200101516113c89190612189565b6113d291906121a9565b6001600160d81b031695945050505050565b6000806113f66201518061016d611d9a565b6114008486611d9a565b61140a9190611db1565b9050610cd3610ace82611449565b60008082136112b957610381826121c3565b6000670de0b6b3a764000061143f8484611d9a565b61037e9190611db1565b60006001600160ff1b038211156112b957600080fd5b600061146a82611449565b61147c610cc46201518061016d611d9a565b846080015161148b919061201f565b611495919061204f565b90506000811361038157604051630e520c3b60e11b8152600481018290526024016101ee565b6000806114c886846113e4565b9050670de0b6b3a76400008112156114f65760405163329e322960e21b8152600481018290526024016101ee565b600061150c611505878a611fdf565b8990611284565b905060006115198261153c565b90506115258187611284565b61152f9084611fff565b9998505050505050505050565b6000670de0b6b3a764000082036115665760405163a9c8b14d60e01b815260040160405180910390fd5b600061158461157d84670de0b6b3a7640000611fff565b8490611284565b905061158f81611596565b9392505050565b60008082136115d75760405162461bcd60e51b815260206004820152600d60248201526c6f7574206f6620626f756e647360981b60448201526064016101ee565b670c7d713b49da0000821380156115f55750670f43fc2c04ee000082125b1561161957670de0b6b3a764000061160c83611627565b81610f0457610f04611cfb565b61038182611746565b919050565b670de0b6b3a7640000026000806a0c097ce7bc90715b34b9f160241b808401906ec097ce7bc90715b34b9f0fffffffff198501028161166857611668611cfb565b05905060006a0c097ce7bc90715b34b9f160241b82800205905081806a0c097ce7bc90715b34b9f160241b81840205915060038205016a0c097ce7bc90715b34b9f160241b82840205915060058205016a0c097ce7bc90715b34b9f160241b82840205915060078205016a0c097ce7bc90715b34b9f160241b82840205915060098205016a0c097ce7bc90715b34b9f160241b828402059150600b8205016a0c097ce7bc90715b34b9f160241b828402059150600d8205016a0c097ce7bc90715b34b9f160241b828402059150600f82050160020295945050505050565b6000670de0b6b3a76400008212156117875761177e826a0c097ce7bc90715b34b9f160241b8161177857611778611cfb565b05611746565b60000392915050565b6000775803bcc5cb9634ba4cfb2213f784019318ed4dcb6017880f60361b83126117d25772195e54c5dd42177f53a27172fa9ec63026282760241b830592506806f05b59d3b2000000015b6f8bcc0026baae9e45e470190267a230cf60191b8312611809576b1425982cf597cd205cef7380830592506803782dace9d9000000015b606492830292026e01855144814a7ff805980ff00840008312611851576e01855144814a7ff805980ff008400068056bc75e2d63100000840205925068ad78ebc5ac62000000015b6b02df0ab5a80a22c61ab5a700831261188c576b02df0ab5a80a22c61ab5a70068056bc75e2d6310000084020592506856bc75e2d631000000015b693f1fce3da636ea5cf85083126118c357693f1fce3da636ea5cf85068056bc75e2d631000008402059250682b5e3af16b18800000015b690127fa27722cc06cc5e283126118fa57690127fa27722cc06cc5e268056bc75e2d6310000084020592506815af1d78b58c400000015b68280e60114edb805d03831261192f5768280e60114edb805d0368056bc75e2d631000008402059250680ad78ebc5ac6200000015b680ebc5fb41746121110831261195a57680ebc5fb4174612111068056bc75e2d631000009384020592015b6808f00f760a4b2db55d831261198f576808f00f760a4b2db55d68056bc75e2d6310000084020592506802b5e3af16b1880000015b6806f5f177578893793783126119c4576806f5f177578893793768056bc75e2d63100000840205925068015af1d78b58c40000015b6806248f33704b28660383126119f8576806248f33704b28660368056bc75e2d63100000840205925067ad78ebc5ac620000015b6805c548670b9510e7ac8312611a2c576805c548670b9510e7ac68056bc75e2d6310000084020592506756bc75e2d6310000015b600068056bc75e2d63100000840168056bc75e2d631000008086030281611a5557611a55611cfb565b059050600068056bc75e2d63100000828002059050818068056bc75e2d63100000818402059150600382050168056bc75e2d63100000828402059150600582050168056bc75e2d63100000828402059150600782050168056bc75e2d63100000828402059150600982050168056bc75e2d63100000828402059150600b820501600202606485820105979650505050505050565b6001600160a01b0381168114611afe57600080fd5b50565b8015158114611afe57600080fd5b600080600060608486031215611b2457600080fd5b8335611b2f81611ae9565b92506020840135611b3f81611b01565b91506040840135611b4f81611b01565b809150509250925092565b61ffff81168114611afe57600080fd5b600060208284031215611b7c57600080fd5b813561158f81611b5a565b63ffffffff81168114611afe57600080fd5b60008060408385031215611bac57600080fd5b8235611bb781611ae9565b91506020830135611bc781611b87565b809150509250929050565b61ffff91909116815260200190565b6001600160a01b0391909116815260200190565b6020808252818101527f4f776e61626c653a2063616c6c6572206973206e6f7420746865206f776e6572604082015260600190565b8051600f81900b811461162257600080fd5b60008060008060008060c08789031215611c5557600080fd5b611c5e87611c2a565b9550611c6c60208801611c2a565b60408801519095506001600160601b0381168114611c8957600080fd5b6060880151909450611c9a81611b5a565b6080880151909350611cab81611b5a565b60a0880151909250611cbc81611b5a565b809150509295509295509295565b634e487b7160e01b600052601160045260246000fd5b61ffff818116838216019080821115610c7a57610c7a611cca565b634e487b7160e01b600052601260045260246000fd5b600061ffff80841680611d2657611d26611cfb565b92169190910692915050565b80516001600160d81b038116811461162257600080fd5b600080600060608486031215611d5e57600080fd5b8351611d6981611b87565b9250611d7760208501611d32565b91506040840151611b4f81611b01565b8181038181111561038157610381611cca565b808202811582820484141761038157610381611cca565b600082611dc057611dc0611cfb565b500490565b63ffffffff81811683821602808216919082811461077057610770611cca565b63ffffffff818116838216019080821115610c7a57610c7a611cca565b63ffffffff828116828216039080821115610c7a57610c7a611cca565b600063ffffffff80841680611e3657611e36611cfb565b92169190910492915050565b600080600060608486031215611e5757600080fd5b8351611e6281611ae9565b6020850151909350611e7381611ae9565b6040850151909250611b4f81611ae9565b600060208284031215611e9657600080fd5b5051919050565b600060208284031215611eaf57600080fd5b815161158f81611b01565b600060208284031215611ecc57600080fd5b81516001600160801b038116811461158f57600080fd5b634e487b7160e01b600052604160045260246000fd5b60405161012081016001600160401b0381118282101715611f1c57611f1c611ee3565b60405290565b604051601f8201601f191681016001600160401b0381118282101715611f4a57611f4a611ee3565b604052919050565b805161162281611ae9565b60006101208284031215611f7057600080fd5b611f78611ef9565b825181526020830151602082015260408301516040820152611f9c60608401611f52565b60608201526080830151608082015260a083015160a082015260c083015160c082015260e083015160e08201526101008084015181830152508091505092915050565b808201828112600083128015821682158216171561077057610770611cca565b8181036000831280158383131683831282161715610c7a57610c7a611cca565b80820260008212600160ff1b8414161561203b5761203b611cca565b818105831482151761038157610381611cca565b60008261205e5761205e611cfb565b600160ff1b82146000198414161561207857612078611cca565b500590565b634e487b7160e01b600052603260045260246000fd5b6020808252825182820181905260009190848201906040850190845b818110156120d157835163ffffffff16835292840192918401916001016120af565b50909695505050505050565b600060208083850312156120f057600080fd5b82516001600160401b038082111561210757600080fd5b818501915085601f83011261211b57600080fd5b81518181111561212d5761212d611ee3565b8060051b915061213e848301611f22565b818152918301840191848101908884111561215857600080fd5b938501935b8385101561217d5761216e85611d32565b8252938501939085019061215d565b98975050505050505050565b6001600160d81b03828116828216039080821115610c7a57610c7a611cca565b60006001600160d81b0383811680611e3657611e36611cfb565b6000600160ff1b82016121d8576121d8611cca565b506000039056fe8be0079c531659141344cd1fd0a4f28419497f9722a3daafe3b4186f6b6457e0a26469706673582212204052703970fb93fb52470fd11020fd868bf33e26537cbd9bbe9b3feaebd402b064736f6c63430008170033",
  "linkReferences": {},
  "deployedLinkReferences": {}
}